{
	"contracts/HelloWorld1.sol": {
		"BalanceManager": {
			"abi": [
				{
					"inputs": [],
					"stateMutability": "nonpayable",
					"type": "constructor"
				},
				{
					"inputs": [],
					"name": "updateUserBalances",
					"outputs": [],
					"stateMutability": "nonpayable",
					"type": "function"
				},
				{
					"inputs": [
						{
							"internalType": "address",
							"name": "",
							"type": "address"
						}
					],
					"name": "users",
					"outputs": [
						{
							"internalType": "uint256",
							"name": "balance",
							"type": "uint256"
						}
					],
					"stateMutability": "view",
					"type": "function"
				}
			],
			"devdoc": {
				"kind": "dev",
				"methods": {},
				"version": 1
			},
			"evm": {
				"assembly": "    /* \"contracts/HelloWorld1.sol\":57:600  contract BalanceManager {... */\n  mstore(0x40, 0x80)\n    /* \"contracts/HelloWorld1.sol\":181:382  constructor() {... */\n  callvalue\n  dup1\n  iszero\n  tag_1\n  jumpi\n  0x00\n  dup1\n  revert\ntag_1:\n  pop\n    /* \"contracts/HelloWorld1.sol\":264:267  100 */\n  0x64\n    /* \"contracts/HelloWorld1.sol\":236:241  users */\n  0x00\n    /* \"contracts/HelloWorld1.sol\":236:253  users[msg.sender] */\n  dup1\n    /* \"contracts/HelloWorld1.sol\":242:252  msg.sender */\n  caller\n    /* \"contracts/HelloWorld1.sol\":236:253  users[msg.sender] */\n  0xffffffffffffffffffffffffffffffffffffffff\n  and\n  0xffffffffffffffffffffffffffffffffffffffff\n  and\n  dup2\n  mstore\n  0x20\n  add\n  swap1\n  dup2\n  mstore\n  0x20\n  add\n  0x00\n  keccak256\n    /* \"contracts/HelloWorld1.sol\":236:261  users[msg.sender].balance */\n  0x00\n  add\n    /* \"contracts/HelloWorld1.sol\":236:267  users[msg.sender].balance = 100 */\n  dup2\n  swap1\n  sstore\n  pop\n    /* \"contracts/HelloWorld1.sol\":334:341  User(0) */\n  mload(0x40)\n  dup1\n  0x20\n  add\n  0x40\n  mstore\n  dup1\n    /* \"contracts/HelloWorld1.sol\":339:340  0 */\n  0x00\n    /* \"contracts/HelloWorld1.sol\":334:341  User(0) */\n  dup2\n  mstore\n  pop\n    /* \"contracts/HelloWorld1.sol\":312:317  users */\n  0x00\n    /* \"contracts/HelloWorld1.sol\":312:331  users[address(0x2)] */\n  dup1\n    /* \"contracts/HelloWorld1.sol\":326:329  0x2 */\n  0x02\n    /* \"contracts/HelloWorld1.sol\":312:331  users[address(0x2)] */\n  0xffffffffffffffffffffffffffffffffffffffff\n  and\n  0xffffffffffffffffffffffffffffffffffffffff\n  and\n  dup2\n  mstore\n  0x20\n  add\n  swap1\n  dup2\n  mstore\n  0x20\n  add\n  0x00\n  keccak256\n    /* \"contracts/HelloWorld1.sol\":312:341  users[address(0x2)] = User(0) */\n  0x00\n  dup3\n  add\n  mload\n  dup2\n  0x00\n  add\n  sstore\n  swap1\n  pop\n  pop\n    /* \"contracts/HelloWorld1.sol\":57:600  contract BalanceManager {... */\n  dataSize(sub_0)\n  dup1\n  dataOffset(sub_0)\n  0x00\n  codecopy\n  0x00\n  return\nstop\n\nsub_0: assembly {\n        /* \"contracts/HelloWorld1.sol\":57:600  contract BalanceManager {... */\n      mstore(0x40, 0x80)\n      callvalue\n      dup1\n      iszero\n      tag_1\n      jumpi\n      0x00\n      dup1\n      revert\n    tag_1:\n      pop\n      jumpi(tag_2, lt(calldatasize, 0x04))\n      shr(0xe0, calldataload(0x00))\n      dup1\n      0x4cb9c4af\n      eq\n      tag_3\n      jumpi\n      dup1\n      0xa87430ba\n      eq\n      tag_4\n      jumpi\n    tag_2:\n      0x00\n      dup1\n      revert\n        /* \"contracts/HelloWorld1.sol\":388:598  function updateUserBalances() public {... */\n    tag_3:\n      tag_5\n      tag_6\n      jump\t// in\n    tag_5:\n      stop\n        /* \"contracts/HelloWorld1.sol\":137:174  mapping(address => User) public users */\n    tag_4:\n      tag_7\n      0x04\n      dup1\n      calldatasize\n      sub\n      dup2\n      add\n      swap1\n      tag_8\n      swap2\n      swap1\n      tag_9\n      jump\t// in\n    tag_8:\n      tag_10\n      jump\t// in\n    tag_7:\n      mload(0x40)\n      tag_11\n      swap2\n      swap1\n      tag_12\n      jump\t// in\n    tag_11:\n      mload(0x40)\n      dup1\n      swap2\n      sub\n      swap1\n      return\n        /* \"contracts/HelloWorld1.sol\":388:598  function updateUserBalances() public {... */\n    tag_6:\n        /* \"contracts/HelloWorld1.sol\":508:510  10 */\n      0x0a\n        /* \"contracts/HelloWorld1.sol\":479:484  users */\n      0x00\n        /* \"contracts/HelloWorld1.sol\":479:496  users[msg.sender] */\n      dup1\n        /* \"contracts/HelloWorld1.sol\":485:495  msg.sender */\n      caller\n        /* \"contracts/HelloWorld1.sol\":479:496  users[msg.sender] */\n      0xffffffffffffffffffffffffffffffffffffffff\n      and\n      0xffffffffffffffffffffffffffffffffffffffff\n      and\n      dup2\n      mstore\n      0x20\n      add\n      swap1\n      dup2\n      mstore\n      0x20\n      add\n      0x00\n      keccak256\n        /* \"contracts/HelloWorld1.sol\":479:504  users[msg.sender].balance */\n      0x00\n      add\n      0x00\n        /* \"contracts/HelloWorld1.sol\":479:510  users[msg.sender].balance -= 10 */\n      dup3\n      dup3\n      sload\n      tag_14\n      swap2\n      swap1\n      tag_15\n      jump\t// in\n    tag_14:\n      swap3\n      pop\n      pop\n      dup2\n      swap1\n      sstore\n      pop\n        /* \"contracts/HelloWorld1.sol\":589:591  10 */\n      0x0a\n        /* \"contracts/HelloWorld1.sol\":558:563  users */\n      0x00\n        /* \"contracts/HelloWorld1.sol\":558:577  users[address(0x2)] */\n      dup1\n        /* \"contracts/HelloWorld1.sol\":572:575  0x2 */\n      0x02\n        /* \"contracts/HelloWorld1.sol\":558:577  users[address(0x2)] */\n      0xffffffffffffffffffffffffffffffffffffffff\n      and\n      0xffffffffffffffffffffffffffffffffffffffff\n      and\n      dup2\n      mstore\n      0x20\n      add\n      swap1\n      dup2\n      mstore\n      0x20\n      add\n      0x00\n      keccak256\n        /* \"contracts/HelloWorld1.sol\":558:585  users[address(0x2)].balance */\n      0x00\n      add\n      0x00\n        /* \"contracts/HelloWorld1.sol\":558:591  users[address(0x2)].balance += 10 */\n      dup3\n      dup3\n      sload\n      tag_16\n      swap2\n      swap1\n      tag_17\n      jump\t// in\n    tag_16:\n      swap3\n      pop\n      pop\n      dup2\n      swap1\n      sstore\n      pop\n        /* \"contracts/HelloWorld1.sol\":388:598  function updateUserBalances() public {... */\n      jump\t// out\n        /* \"contracts/HelloWorld1.sol\":137:174  mapping(address => User) public users */\n    tag_10:\n      mstore(0x20, 0x00)\n      dup1\n      0x00\n      mstore\n      keccak256(0x00, 0x40)\n      0x00\n      swap2\n      pop\n      swap1\n      pop\n      dup1\n      0x00\n      add\n      sload\n      swap1\n      pop\n      dup2\n      jump\t// out\n        /* \"#utility.yul\":88:205   */\n    tag_19:\n        /* \"#utility.yul\":197:198   */\n      0x00\n        /* \"#utility.yul\":194:195   */\n      dup1\n        /* \"#utility.yul\":187:199   */\n      revert\n        /* \"#utility.yul\":334:460   */\n    tag_21:\n        /* \"#utility.yul\":371:378   */\n      0x00\n        /* \"#utility.yul\":411:453   */\n      0xffffffffffffffffffffffffffffffffffffffff\n        /* \"#utility.yul\":404:409   */\n      dup3\n        /* \"#utility.yul\":400:454   */\n      and\n        /* \"#utility.yul\":389:454   */\n      swap1\n      pop\n        /* \"#utility.yul\":334:460   */\n      swap2\n      swap1\n      pop\n      jump\t// out\n        /* \"#utility.yul\":466:562   */\n    tag_22:\n        /* \"#utility.yul\":503:510   */\n      0x00\n        /* \"#utility.yul\":532:556   */\n      tag_34\n        /* \"#utility.yul\":550:555   */\n      dup3\n        /* \"#utility.yul\":532:556   */\n      tag_21\n      jump\t// in\n    tag_34:\n        /* \"#utility.yul\":521:556   */\n      swap1\n      pop\n        /* \"#utility.yul\":466:562   */\n      swap2\n      swap1\n      pop\n      jump\t// out\n        /* \"#utility.yul\":568:690   */\n    tag_23:\n        /* \"#utility.yul\":641:665   */\n      tag_36\n        /* \"#utility.yul\":659:664   */\n      dup2\n        /* \"#utility.yul\":641:665   */\n      tag_22\n      jump\t// in\n    tag_36:\n        /* \"#utility.yul\":634:639   */\n      dup2\n        /* \"#utility.yul\":631:666   */\n      eq\n        /* \"#utility.yul\":621:684   */\n      tag_37\n      jumpi\n        /* \"#utility.yul\":680:681   */\n      0x00\n        /* \"#utility.yul\":677:678   */\n      dup1\n        /* \"#utility.yul\":670:682   */\n      revert\n        /* \"#utility.yul\":621:684   */\n    tag_37:\n        /* \"#utility.yul\":568:690   */\n      pop\n      jump\t// out\n        /* \"#utility.yul\":696:835   */\n    tag_24:\n        /* \"#utility.yul\":742:747   */\n      0x00\n        /* \"#utility.yul\":780:786   */\n      dup2\n        /* \"#utility.yul\":767:787   */\n      calldataload\n        /* \"#utility.yul\":758:787   */\n      swap1\n      pop\n        /* \"#utility.yul\":796:829   */\n      tag_39\n        /* \"#utility.yul\":823:828   */\n      dup2\n        /* \"#utility.yul\":796:829   */\n      tag_23\n      jump\t// in\n    tag_39:\n        /* \"#utility.yul\":696:835   */\n      swap3\n      swap2\n      pop\n      pop\n      jump\t// out\n        /* \"#utility.yul\":841:1170   */\n    tag_9:\n        /* \"#utility.yul\":900:906   */\n      0x00\n        /* \"#utility.yul\":949:951   */\n      0x20\n        /* \"#utility.yul\":937:946   */\n      dup3\n        /* \"#utility.yul\":928:935   */\n      dup5\n        /* \"#utility.yul\":924:947   */\n      sub\n        /* \"#utility.yul\":920:952   */\n      slt\n        /* \"#utility.yul\":917:1036   */\n      iszero\n      tag_41\n      jumpi\n        /* \"#utility.yul\":955:1034   */\n      tag_42\n      tag_19\n      jump\t// in\n    tag_42:\n        /* \"#utility.yul\":917:1036   */\n    tag_41:\n        /* \"#utility.yul\":1075:1076   */\n      0x00\n        /* \"#utility.yul\":1100:1153   */\n      tag_43\n        /* \"#utility.yul\":1145:1152   */\n      dup5\n        /* \"#utility.yul\":1136:1142   */\n      dup3\n        /* \"#utility.yul\":1125:1134   */\n      dup6\n        /* \"#utility.yul\":1121:1143   */\n      add\n        /* \"#utility.yul\":1100:1153   */\n      tag_24\n      jump\t// in\n    tag_43:\n        /* \"#utility.yul\":1090:1153   */\n      swap2\n      pop\n        /* \"#utility.yul\":1046:1163   */\n      pop\n        /* \"#utility.yul\":841:1170   */\n      swap3\n      swap2\n      pop\n      pop\n      jump\t// out\n        /* \"#utility.yul\":1176:1253   */\n    tag_25:\n        /* \"#utility.yul\":1213:1220   */\n      0x00\n        /* \"#utility.yul\":1242:1247   */\n      dup2\n        /* \"#utility.yul\":1231:1247   */\n      swap1\n      pop\n        /* \"#utility.yul\":1176:1253   */\n      swap2\n      swap1\n      pop\n      jump\t// out\n        /* \"#utility.yul\":1259:1377   */\n    tag_26:\n        /* \"#utility.yul\":1346:1370   */\n      tag_46\n        /* \"#utility.yul\":1364:1369   */\n      dup2\n        /* \"#utility.yul\":1346:1370   */\n      tag_25\n      jump\t// in\n    tag_46:\n        /* \"#utility.yul\":1341:1344   */\n      dup3\n        /* \"#utility.yul\":1334:1371   */\n      mstore\n        /* \"#utility.yul\":1259:1377   */\n      pop\n      pop\n      jump\t// out\n        /* \"#utility.yul\":1383:1605   */\n    tag_12:\n        /* \"#utility.yul\":1476:1480   */\n      0x00\n        /* \"#utility.yul\":1514:1516   */\n      0x20\n        /* \"#utility.yul\":1503:1512   */\n      dup3\n        /* \"#utility.yul\":1499:1517   */\n      add\n        /* \"#utility.yul\":1491:1517   */\n      swap1\n      pop\n        /* \"#utility.yul\":1527:1598   */\n      tag_48\n        /* \"#utility.yul\":1595:1596   */\n      0x00\n        /* \"#utility.yul\":1584:1593   */\n      dup4\n        /* \"#utility.yul\":1580:1597   */\n      add\n        /* \"#utility.yul\":1571:1577   */\n      dup5\n        /* \"#utility.yul\":1527:1598   */\n      tag_26\n      jump\t// in\n    tag_48:\n        /* \"#utility.yul\":1383:1605   */\n      swap3\n      swap2\n      pop\n      pop\n      jump\t// out\n        /* \"#utility.yul\":1611:1791   */\n    tag_27:\n        /* \"#utility.yul\":1659:1736   */\n      0x4e487b7100000000000000000000000000000000000000000000000000000000\n        /* \"#utility.yul\":1656:1657   */\n      0x00\n        /* \"#utility.yul\":1649:1737   */\n      mstore\n        /* \"#utility.yul\":1756:1760   */\n      0x11\n        /* \"#utility.yul\":1753:1754   */\n      0x04\n        /* \"#utility.yul\":1746:1761   */\n      mstore\n        /* \"#utility.yul\":1780:1784   */\n      0x24\n        /* \"#utility.yul\":1777:1778   */\n      0x00\n        /* \"#utility.yul\":1770:1785   */\n      revert\n        /* \"#utility.yul\":1797:1991   */\n    tag_15:\n        /* \"#utility.yul\":1837:1841   */\n      0x00\n        /* \"#utility.yul\":1857:1877   */\n      tag_51\n        /* \"#utility.yul\":1875:1876   */\n      dup3\n        /* \"#utility.yul\":1857:1877   */\n      tag_25\n      jump\t// in\n    tag_51:\n        /* \"#utility.yul\":1852:1877   */\n      swap2\n      pop\n        /* \"#utility.yul\":1891:1911   */\n      tag_52\n        /* \"#utility.yul\":1909:1910   */\n      dup4\n        /* \"#utility.yul\":1891:1911   */\n      tag_25\n      jump\t// in\n    tag_52:\n        /* \"#utility.yul\":1886:1911   */\n      swap3\n      pop\n        /* \"#utility.yul\":1935:1936   */\n      dup3\n        /* \"#utility.yul\":1932:1933   */\n      dup3\n        /* \"#utility.yul\":1928:1937   */\n      sub\n        /* \"#utility.yul\":1920:1937   */\n      swap1\n      pop\n        /* \"#utility.yul\":1959:1960   */\n      dup2\n        /* \"#utility.yul\":1953:1957   */\n      dup2\n        /* \"#utility.yul\":1950:1961   */\n      gt\n        /* \"#utility.yul\":1947:1984   */\n      iszero\n      tag_53\n      jumpi\n        /* \"#utility.yul\":1964:1982   */\n      tag_54\n      tag_27\n      jump\t// in\n    tag_54:\n        /* \"#utility.yul\":1947:1984   */\n    tag_53:\n        /* \"#utility.yul\":1797:1991   */\n      swap3\n      swap2\n      pop\n      pop\n      jump\t// out\n        /* \"#utility.yul\":1997:2188   */\n    tag_17:\n        /* \"#utility.yul\":2037:2040   */\n      0x00\n        /* \"#utility.yul\":2056:2076   */\n      tag_56\n        /* \"#utility.yul\":2074:2075   */\n      dup3\n        /* \"#utility.yul\":2056:2076   */\n      tag_25\n      jump\t// in\n    tag_56:\n        /* \"#utility.yul\":2051:2076   */\n      swap2\n      pop\n        /* \"#utility.yul\":2090:2110   */\n      tag_57\n        /* \"#utility.yul\":2108:2109   */\n      dup4\n        /* \"#utility.yul\":2090:2110   */\n      tag_25\n      jump\t// in\n    tag_57:\n        /* \"#utility.yul\":2085:2110   */\n      swap3\n      pop\n        /* \"#utility.yul\":2133:2134   */\n      dup3\n        /* \"#utility.yul\":2130:2131   */\n      dup3\n        /* \"#utility.yul\":2126:2135   */\n      add\n        /* \"#utility.yul\":2119:2135   */\n      swap1\n      pop\n        /* \"#utility.yul\":2154:2157   */\n      dup1\n        /* \"#utility.yul\":2151:2152   */\n      dup3\n        /* \"#utility.yul\":2148:2158   */\n      gt\n        /* \"#utility.yul\":2145:2181   */\n      iszero\n      tag_58\n      jumpi\n        /* \"#utility.yul\":2161:2179   */\n      tag_59\n      tag_27\n      jump\t// in\n    tag_59:\n        /* \"#utility.yul\":2145:2181   */\n    tag_58:\n        /* \"#utility.yul\":1997:2188   */\n      swap3\n      swap2\n      pop\n      pop\n      jump\t// out\n\n    auxdata: 0xa26469706673582212208e0f9ed081f557d20d37dfae4b6bf7da457c9eec1073c560929be5467aa27e1a64736f6c63430008160033\n}\n",
				"bytecode": {
					"linkReferences": {},
					"object": "608060405234801561000f575f80fd5b5060645f803373ffffffffffffffffffffffffffffffffffffffff1673ffffffffffffffffffffffffffffffffffffffff1681526020019081526020015f205f018190555060405180602001604052805f8152505f80600273ffffffffffffffffffffffffffffffffffffffff1673ffffffffffffffffffffffffffffffffffffffff1681526020019081526020015f205f820151815f01559050506102bb806100b85f395ff3fe608060405234801561000f575f80fd5b5060043610610034575f3560e01c80634cb9c4af14610038578063a87430ba14610042575b5f80fd5b610040610072565b005b61005c60048036038101906100579190610196565b61011f565b60405161006991906101d9565b60405180910390f35b600a5f803373ffffffffffffffffffffffffffffffffffffffff1673ffffffffffffffffffffffffffffffffffffffff1681526020019081526020015f205f015f8282546100c0919061021f565b92505081905550600a5f80600273ffffffffffffffffffffffffffffffffffffffff1673ffffffffffffffffffffffffffffffffffffffff1681526020019081526020015f205f015f8282546101169190610252565b92505081905550565b5f602052805f5260405f205f91509050805f0154905081565b5f80fd5b5f73ffffffffffffffffffffffffffffffffffffffff82169050919050565b5f6101658261013c565b9050919050565b6101758161015b565b811461017f575f80fd5b50565b5f813590506101908161016c565b92915050565b5f602082840312156101ab576101aa610138565b5b5f6101b884828501610182565b91505092915050565b5f819050919050565b6101d3816101c1565b82525050565b5f6020820190506101ec5f8301846101ca565b92915050565b7f4e487b71000000000000000000000000000000000000000000000000000000005f52601160045260245ffd5b5f610229826101c1565b9150610234836101c1565b925082820390508181111561024c5761024b6101f2565b5b92915050565b5f61025c826101c1565b9150610267836101c1565b925082820190508082111561027f5761027e6101f2565b5b9291505056fea26469706673582212208e0f9ed081f557d20d37dfae4b6bf7da457c9eec1073c560929be5467aa27e1a64736f6c63430008160033",
					"opcodes": "PUSH1 0x80 PUSH1 0x40 MSTORE CALLVALUE DUP1 ISZERO PUSH2 0xF JUMPI PUSH0 DUP1 REVERT JUMPDEST POP PUSH1 0x64 PUSH0 DUP1 CALLER PUSH20 0xFFFFFFFFFFFFFFFFFFFFFFFFFFFFFFFFFFFFFFFF AND PUSH20 0xFFFFFFFFFFFFFFFFFFFFFFFFFFFFFFFFFFFFFFFF AND DUP2 MSTORE PUSH1 0x20 ADD SWAP1 DUP2 MSTORE PUSH1 0x20 ADD PUSH0 KECCAK256 PUSH0 ADD DUP2 SWAP1 SSTORE POP PUSH1 0x40 MLOAD DUP1 PUSH1 0x20 ADD PUSH1 0x40 MSTORE DUP1 PUSH0 DUP2 MSTORE POP PUSH0 DUP1 PUSH1 0x2 PUSH20 0xFFFFFFFFFFFFFFFFFFFFFFFFFFFFFFFFFFFFFFFF AND PUSH20 0xFFFFFFFFFFFFFFFFFFFFFFFFFFFFFFFFFFFFFFFF AND DUP2 MSTORE PUSH1 0x20 ADD SWAP1 DUP2 MSTORE PUSH1 0x20 ADD PUSH0 KECCAK256 PUSH0 DUP3 ADD MLOAD DUP2 PUSH0 ADD SSTORE SWAP1 POP POP PUSH2 0x2BB DUP1 PUSH2 0xB8 PUSH0 CODECOPY PUSH0 RETURN INVALID PUSH1 0x80 PUSH1 0x40 MSTORE CALLVALUE DUP1 ISZERO PUSH2 0xF JUMPI PUSH0 DUP1 REVERT JUMPDEST POP PUSH1 0x4 CALLDATASIZE LT PUSH2 0x34 JUMPI PUSH0 CALLDATALOAD PUSH1 0xE0 SHR DUP1 PUSH4 0x4CB9C4AF EQ PUSH2 0x38 JUMPI DUP1 PUSH4 0xA87430BA EQ PUSH2 0x42 JUMPI JUMPDEST PUSH0 DUP1 REVERT JUMPDEST PUSH2 0x40 PUSH2 0x72 JUMP JUMPDEST STOP JUMPDEST PUSH2 0x5C PUSH1 0x4 DUP1 CALLDATASIZE SUB DUP2 ADD SWAP1 PUSH2 0x57 SWAP2 SWAP1 PUSH2 0x196 JUMP JUMPDEST PUSH2 0x11F JUMP JUMPDEST PUSH1 0x40 MLOAD PUSH2 0x69 SWAP2 SWAP1 PUSH2 0x1D9 JUMP JUMPDEST PUSH1 0x40 MLOAD DUP1 SWAP2 SUB SWAP1 RETURN JUMPDEST PUSH1 0xA PUSH0 DUP1 CALLER PUSH20 0xFFFFFFFFFFFFFFFFFFFFFFFFFFFFFFFFFFFFFFFF AND PUSH20 0xFFFFFFFFFFFFFFFFFFFFFFFFFFFFFFFFFFFFFFFF AND DUP2 MSTORE PUSH1 0x20 ADD SWAP1 DUP2 MSTORE PUSH1 0x20 ADD PUSH0 KECCAK256 PUSH0 ADD PUSH0 DUP3 DUP3 SLOAD PUSH2 0xC0 SWAP2 SWAP1 PUSH2 0x21F JUMP JUMPDEST SWAP3 POP POP DUP2 SWAP1 SSTORE POP PUSH1 0xA PUSH0 DUP1 PUSH1 0x2 PUSH20 0xFFFFFFFFFFFFFFFFFFFFFFFFFFFFFFFFFFFFFFFF AND PUSH20 0xFFFFFFFFFFFFFFFFFFFFFFFFFFFFFFFFFFFFFFFF AND DUP2 MSTORE PUSH1 0x20 ADD SWAP1 DUP2 MSTORE PUSH1 0x20 ADD PUSH0 KECCAK256 PUSH0 ADD PUSH0 DUP3 DUP3 SLOAD PUSH2 0x116 SWAP2 SWAP1 PUSH2 0x252 JUMP JUMPDEST SWAP3 POP POP DUP2 SWAP1 SSTORE POP JUMP JUMPDEST PUSH0 PUSH1 0x20 MSTORE DUP1 PUSH0 MSTORE PUSH1 0x40 PUSH0 KECCAK256 PUSH0 SWAP2 POP SWAP1 POP DUP1 PUSH0 ADD SLOAD SWAP1 POP DUP2 JUMP JUMPDEST PUSH0 DUP1 REVERT JUMPDEST PUSH0 PUSH20 0xFFFFFFFFFFFFFFFFFFFFFFFFFFFFFFFFFFFFFFFF DUP3 AND SWAP1 POP SWAP2 SWAP1 POP JUMP JUMPDEST PUSH0 PUSH2 0x165 DUP3 PUSH2 0x13C JUMP JUMPDEST SWAP1 POP SWAP2 SWAP1 POP JUMP JUMPDEST PUSH2 0x175 DUP2 PUSH2 0x15B JUMP JUMPDEST DUP2 EQ PUSH2 0x17F JUMPI PUSH0 DUP1 REVERT JUMPDEST POP JUMP JUMPDEST PUSH0 DUP2 CALLDATALOAD SWAP1 POP PUSH2 0x190 DUP2 PUSH2 0x16C JUMP JUMPDEST SWAP3 SWAP2 POP POP JUMP JUMPDEST PUSH0 PUSH1 0x20 DUP3 DUP5 SUB SLT ISZERO PUSH2 0x1AB JUMPI PUSH2 0x1AA PUSH2 0x138 JUMP JUMPDEST JUMPDEST PUSH0 PUSH2 0x1B8 DUP5 DUP3 DUP6 ADD PUSH2 0x182 JUMP JUMPDEST SWAP2 POP POP SWAP3 SWAP2 POP POP JUMP JUMPDEST PUSH0 DUP2 SWAP1 POP SWAP2 SWAP1 POP JUMP JUMPDEST PUSH2 0x1D3 DUP2 PUSH2 0x1C1 JUMP JUMPDEST DUP3 MSTORE POP POP JUMP JUMPDEST PUSH0 PUSH1 0x20 DUP3 ADD SWAP1 POP PUSH2 0x1EC PUSH0 DUP4 ADD DUP5 PUSH2 0x1CA JUMP JUMPDEST SWAP3 SWAP2 POP POP JUMP JUMPDEST PUSH32 0x4E487B7100000000000000000000000000000000000000000000000000000000 PUSH0 MSTORE PUSH1 0x11 PUSH1 0x4 MSTORE PUSH1 0x24 PUSH0 REVERT JUMPDEST PUSH0 PUSH2 0x229 DUP3 PUSH2 0x1C1 JUMP JUMPDEST SWAP2 POP PUSH2 0x234 DUP4 PUSH2 0x1C1 JUMP JUMPDEST SWAP3 POP DUP3 DUP3 SUB SWAP1 POP DUP2 DUP2 GT ISZERO PUSH2 0x24C JUMPI PUSH2 0x24B PUSH2 0x1F2 JUMP JUMPDEST JUMPDEST SWAP3 SWAP2 POP POP JUMP JUMPDEST PUSH0 PUSH2 0x25C DUP3 PUSH2 0x1C1 JUMP JUMPDEST SWAP2 POP PUSH2 0x267 DUP4 PUSH2 0x1C1 JUMP JUMPDEST SWAP3 POP DUP3 DUP3 ADD SWAP1 POP DUP1 DUP3 GT ISZERO PUSH2 0x27F JUMPI PUSH2 0x27E PUSH2 0x1F2 JUMP JUMPDEST JUMPDEST SWAP3 SWAP2 POP POP JUMP INVALID LOG2 PUSH5 0x6970667358 0x22 SLT KECCAK256 DUP15 0xF SWAP15 0xD0 DUP2 CREATE2 JUMPI 0xD2 0xD CALLDATACOPY 0xDF 0xAE 0x4B PUSH12 0xF7DA457C9EEC1073C560929B 0xE5 CHAINID PUSH27 0xA27E1A64736F6C6343000816003300000000000000000000000000 "
				},
				"gasEstimates": {
					"creation": {
						"codeDepositCost": "139800",
						"executionCost": "27538",
						"totalCost": "167338"
					},
					"external": {
						"updateUserBalances()": "infinite",
						"users(address)": "2814"
					}
				},
				"methodIdentifiers": {
					"updateUserBalances()": "4cb9c4af",
					"users(address)": "a87430ba"
				}
			},
			"storageLayout": {
				"storage": [
					{
						"astId": 9,
						"contract": "contracts/HelloWorld1.sol:BalanceManager",
						"label": "users",
						"offset": 0,
						"slot": "0",
						"type": "t_mapping(t_address,t_struct(User)4_storage)"
					}
				],
				"types": {
					"t_address": {
						"encoding": "inplace",
						"label": "address",
						"numberOfBytes": "20"
					},
					"t_mapping(t_address,t_struct(User)4_storage)": {
						"encoding": "mapping",
						"key": "t_address",
						"label": "mapping(address => struct BalanceManager.User)",
						"numberOfBytes": "32",
						"value": "t_struct(User)4_storage"
					},
					"t_struct(User)4_storage": {
						"encoding": "inplace",
						"label": "struct BalanceManager.User",
						"members": [
							{
								"astId": 3,
								"contract": "contracts/HelloWorld1.sol:BalanceManager",
								"label": "balance",
								"offset": 0,
								"slot": "0",
								"type": "t_uint256"
							}
						],
						"numberOfBytes": "32"
					},
					"t_uint256": {
						"encoding": "inplace",
						"label": "uint256",
						"numberOfBytes": "32"
					}
				}
			},
			"userdoc": {
				"kind": "user",
				"methods": {},
				"version": 1
			}
		}
	}
}